{
  "contractName": "Rating",
  "abi": [
    {
      "anonymous": false,
      "inputs": [
        {
          "indexed": false,
          "internalType": "string",
          "name": "errorMessage",
          "type": "string"
        }
      ],
      "name": "LogNoMultipleVotesAllowed",
      "type": "event"
    },
    {
      "anonymous": false,
      "inputs": [
        {
          "indexed": false,
          "internalType": "string",
          "name": "message",
          "type": "string"
        }
      ],
      "name": "LogSuccessfullyRatedItem",
      "type": "event"
    },
    {
      "constant": true,
      "inputs": [
        {
          "internalType": "string",
          "name": "",
          "type": "string"
        }
      ],
      "name": "items",
      "outputs": [
        {
          "internalType": "bool",
          "name": "",
          "type": "bool"
        }
      ],
      "payable": false,
      "stateMutability": "view",
      "type": "function"
    },
    {
      "constant": true,
      "inputs": [
        {
          "internalType": "string",
          "name": "",
          "type": "string"
        }
      ],
      "name": "itemsInformation",
      "outputs": [
        {
          "internalType": "uint256",
          "name": "likes",
          "type": "uint256"
        },
        {
          "internalType": "uint256",
          "name": "dislikes",
          "type": "uint256"
        }
      ],
      "payable": false,
      "stateMutability": "view",
      "type": "function"
    },
    {
      "constant": true,
      "inputs": [
        {
          "internalType": "uint256",
          "name": "",
          "type": "uint256"
        }
      ],
      "name": "ratedItems",
      "outputs": [
        {
          "internalType": "string",
          "name": "",
          "type": "string"
        }
      ],
      "payable": false,
      "stateMutability": "view",
      "type": "function"
    },
    {
      "constant": true,
      "inputs": [
        {
          "internalType": "string",
          "name": "",
          "type": "string"
        },
        {
          "internalType": "string",
          "name": "",
          "type": "string"
        }
      ],
      "name": "ratingInformation",
      "outputs": [
        {
          "internalType": "bool",
          "name": "",
          "type": "bool"
        }
      ],
      "payable": false,
      "stateMutability": "view",
      "type": "function"
    },
    {
      "constant": true,
      "inputs": [
        {
          "internalType": "string",
          "name": "",
          "type": "string"
        },
        {
          "internalType": "string",
          "name": "",
          "type": "string"
        }
      ],
      "name": "voterToResource",
      "outputs": [
        {
          "internalType": "bool",
          "name": "",
          "type": "bool"
        }
      ],
      "payable": false,
      "stateMutability": "view",
      "type": "function"
    },
    {
      "constant": false,
      "inputs": [
        {
          "internalType": "string",
          "name": "_credentials",
          "type": "string"
        },
        {
          "internalType": "string",
          "name": "_resourceID",
          "type": "string"
        },
        {
          "internalType": "bool",
          "name": "_vote",
          "type": "bool"
        }
      ],
      "name": "rateItem",
      "outputs": [],
      "payable": false,
      "stateMutability": "nonpayable",
      "type": "function"
    },
    {
      "constant": true,
      "inputs": [
        {
          "internalType": "string",
          "name": "_resourceID",
          "type": "string"
        }
      ],
      "name": "getItemInformation",
      "outputs": [
        {
          "internalType": "uint256",
          "name": "",
          "type": "uint256"
        },
        {
          "internalType": "uint256",
          "name": "",
          "type": "uint256"
        }
      ],
      "payable": false,
      "stateMutability": "view",
      "type": "function"
    },
    {
      "constant": true,
      "inputs": [],
      "name": "getNumberOfRatedItems",
      "outputs": [
        {
          "internalType": "uint256",
          "name": "",
          "type": "uint256"
        }
      ],
      "payable": false,
      "stateMutability": "view",
      "type": "function"
    },
    {
      "constant": true,
      "inputs": [
        {
          "internalType": "uint256",
          "name": "_index",
          "type": "uint256"
        }
      ],
      "name": "getRatedItem",
      "outputs": [
        {
          "internalType": "string",
          "name": "",
          "type": "string"
        }
      ],
      "payable": false,
      "stateMutability": "view",
      "type": "function"
    },
    {
      "constant": true,
      "inputs": [],
      "name": "getRatedItems",
      "outputs": [
        {
          "internalType": "string[]",
          "name": "",
          "type": "string[]"
        }
      ],
      "payable": false,
      "stateMutability": "view",
      "type": "function"
    }
  ],
  "bytecode": "0x608060405234801561001057600080fd5b50611452806100206000396000f3fe608060405234801561001057600080fd5b506004361061009e5760003560e01c80637e999abb116100665780637e999abb146101945780639c2ec087146101b05780639d39daa6146101e1578063b77cd308146101ff578063e2cd9fdc1461021d5761009e565b8063153e4025146100a35780631d64a36a146100d35780634909b29b14610103578063539f91da1461013357806360a6abcc14610164575b600080fd5b6100bd60048036036100b89190810190610f8f565b61024d565b6040516100ca91906111f1565b60405180910390f35b6100ed60048036036100e89190810190610f23565b610306565b6040516100fa91906111b4565b60405180910390f35b61011d60048036036101189190810190610e22565b610361565b60405161012a91906111b4565b60405180910390f35b61014d60048036036101489190810190610e22565b610397565b60405161015b92919061124e565b60405180910390f35b61017e60048036036101799190810190610f8f565b6103d1565b60405161018b91906111cf565b60405180910390f35b6101ae60048036036101a99190810190610ea4565b61048a565b005b6101ca60048036036101c59190810190610e63565b610b0a565b6040516101d892919061124e565b60405180910390f35b6101e9610b5a565b6040516101f69190611233565b60405180910390f35b610207610b67565b6040516102149190611192565b60405180910390f35b61023760048036036102329190810190610f23565b610c50565b60405161024491906111b4565b60405180910390f35b60606002828154811061025c57fe5b906000526020600020018054600181600116156101000203166002900480601f0160208091040260200160405190810160405280929190818152602001828054600181600116156101000203166002900480156102fa5780601f106102cf576101008083540402835291602001916102fa565b820191906000526020600020905b8154815290600101906020018083116102dd57829003601f168201915b50505050509050919050565b600482805160208101820180518482526020830160208501208183528095505050505050818051602081018201805184825260208301602085012081835280955050505050506000915091509054906101000a900460ff1681565b6001818051602081018201805184825260208301602085012081835280955050505050506000915054906101000a900460ff1681565b6000818051602081018201805184825260208301602085012081835280955050505050506000915090508060000154908060010154905082565b600281815481106103de57fe5b906000526020600020016000915090508054600181600116156101000203166002900480601f0160208091040260200160405190810160405280929190818152602001828054600181600116156101000203166002900480156104825780601f1061045757610100808354040283529160200191610482565b820191906000526020600020905b81548152906001019060200180831161046557829003601f168201915b505050505081565b6001151560048460405161049e919061117b565b9081526020016040518091039020836040516104ba919061117b565b908152602001604051809103902060009054906101000a900460ff161515141561071357600115156003846040516104f2919061117b565b90815260200160405180910390208360405161050e919061117b565b908152602001604051809103902060009054906101000a900460ff16151514801561053d575060001515811515145b156105f6576000600384604051610554919061117b565b908152602001604051809103902083604051610570919061117b565b908152602001604051809103902060006101000a81548160ff02191690831515021790555060016000836040516105a7919061117b565b90815260200160405180910390206000016000828254039250508190555060016000836040516105d7919061117b565b9081526020016040518091039020600101600082825401925050819055505b6000151560038460405161060a919061117b565b908152602001604051809103902083604051610626919061117b565b908152602001604051809103902060009054906101000a900460ff161515148015610655575060011515811515145b1561070e57600160038460405161066c919061117b565b908152602001604051809103902083604051610688919061117b565b908152602001604051809103902060006101000a81548160ff02191690831515021790555060016000836040516106bf919061117b565b90815260200160405180910390206000016000828254019250508190555060016000836040516106ef919061117b565b9081526020016040518091039020600101600082825403925050819055505b610b05565b60001515600183604051610727919061117b565b908152602001604051809103902060009054906101000a900460ff16151514156109d3576001808360405161075c919061117b565b908152602001604051809103902060006101000a81548160ff02191690831515021790555060028290806001815401808255809150509060018203906000526020600020016000909192909190915090805190602001906107be929190610cab565b505060016004846040516107d2919061117b565b9081526020016040518091039020836040516107ee919061117b565b908152602001604051809103902060006101000a81548160ff0219169083151502179055506001151581151514156108f9576040518060400160405280600181526020016000815250600083604051610847919061117b565b90815260200160405180910390206000820151816000015560208201518160010155905050600160038460405161087e919061117b565b90815260200160405180910390208360405161089a919061117b565b908152602001604051809103902060006101000a81548160ff0219169083151502179055507fd386689b30f9f3bf6e7818e5dd824664d6958e3ee7b3edb4561427713956c5226040516108ec90611213565b60405180910390a16109ce565b6040518060400160405280600081526020016001815250600083604051610920919061117b565b908152602001604051809103902060008201518160000155602082015181600101559050506000600384604051610957919061117b565b908152602001604051809103902083604051610973919061117b565b908152602001604051809103902060006101000a81548160ff0219169083151502179055507fd386689b30f9f3bf6e7818e5dd824664d6958e3ee7b3edb4561427713956c5226040516109c590611213565b60405180910390a15b610b04565b60016004846040516109e5919061117b565b908152602001604051809103902083604051610a01919061117b565b908152602001604051809103902060006101000a81548160ff021916908315150217905550600115158115151415610a9d576001600083604051610a45919061117b565b9081526020016040518091039020600001600082825401925050819055507fd386689b30f9f3bf6e7818e5dd824664d6958e3ee7b3edb4561427713956c522604051610a9090611213565b60405180910390a1610b03565b6001600083604051610aaf919061117b565b9081526020016040518091039020600101600082825401925050819055507fd386689b30f9f3bf6e7818e5dd824664d6958e3ee7b3edb4561427713956c522604051610afa90611213565b60405180910390a15b5b5b505050565b600080600083604051610b1d919061117b565b908152602001604051809103902060000154600084604051610b3f919061117b565b90815260200160405180910390206001015491509150915091565b6000600280549050905090565b60606002805480602002602001604051908101604052809291908181526020016000905b82821015610c47578382906000526020600020018054600181600116156101000203166002900480601f016020809104026020016040519081016040528092919081815260200182805460018160011615610100020316600290048015610c335780601f10610c0857610100808354040283529160200191610c33565b820191906000526020600020905b815481529060010190602001808311610c1657829003601f168201915b505050505081526020019060010190610b8b565b50505050905090565b600382805160208101820180518482526020830160208501208183528095505050505050818051602081018201805184825260208301602085012081835280955050505050506000915091509054906101000a900460ff1681565b828054600181600116156101000203166002900490600052602060002090601f016020900481019282601f10610cec57805160ff1916838001178555610d1a565b82800160010185558215610d1a579182015b82811115610d19578251825591602001919060010190610cfe565b5b509050610d279190610d2b565b5090565b610d4d91905b80821115610d49576000816000905550600101610d31565b5090565b90565b600081359050610d5f816113e1565b92915050565b600082601f830112610d7657600080fd5b8135610d89610d84826112a4565b611277565b91508082526020830160208301858383011115610da557600080fd5b610db083828461138e565b50505092915050565b600082601f830112610dca57600080fd5b8135610ddd610dd8826112d0565b611277565b91508082526020830160208301858383011115610df957600080fd5b610e0483828461138e565b50505092915050565b600081359050610e1c816113f8565b92915050565b600060208284031215610e3457600080fd5b600082013567ffffffffffffffff811115610e4e57600080fd5b610e5a84828501610d65565b91505092915050565b600060208284031215610e7557600080fd5b600082013567ffffffffffffffff811115610e8f57600080fd5b610e9b84828501610db9565b91505092915050565b600080600060608486031215610eb957600080fd5b600084013567ffffffffffffffff811115610ed357600080fd5b610edf86828701610db9565b935050602084013567ffffffffffffffff811115610efc57600080fd5b610f0886828701610db9565b9250506040610f1986828701610d50565b9150509250925092565b60008060408385031215610f3657600080fd5b600083013567ffffffffffffffff811115610f5057600080fd5b610f5c85828601610d65565b925050602083013567ffffffffffffffff811115610f7957600080fd5b610f8585828601610d65565b9150509250929050565b600060208284031215610fa157600080fd5b6000610faf84828501610e0d565b91505092915050565b6000610fc483836110ba565b905092915050565b6000610fd78261130c565b610fe1818561133a565b935083602082028501610ff3856112fc565b8060005b8581101561102f57848403895281516110108582610fb8565b945061101b8361132d565b925060208a01995050600181019050610ff7565b50829750879550505050505092915050565b61104a81611378565b82525050565b600061105b82611322565b611065818561135c565b935061107581856020860161139d565b61107e816113d0565b840191505092915050565b600061109482611322565b61109e818561136d565b93506110ae81856020860161139d565b80840191505092915050565b60006110c582611317565b6110cf818561134b565b93506110df81856020860161139d565b6110e8816113d0565b840191505092915050565b60006110fe82611317565b611108818561135c565b935061111881856020860161139d565b611121816113d0565b840191505092915050565b6000611139601c8361135c565b91507f4974656d20776173207375636365737366756c6c792072617465642e000000006000830152602082019050919050565b61117581611384565b82525050565b60006111878284611089565b915081905092915050565b600060208201905081810360008301526111ac8184610fcc565b905092915050565b60006020820190506111c96000830184611041565b92915050565b600060208201905081810360008301526111e981846110f3565b905092915050565b6000602082019050818103600083015261120b8184611050565b905092915050565b6000602082019050818103600083015261122c8161112c565b9050919050565b6000602082019050611248600083018461116c565b92915050565b6000604082019050611263600083018561116c565b611270602083018461116c565b9392505050565b6000604051905081810181811067ffffffffffffffff8211171561129a57600080fd5b8060405250919050565b600067ffffffffffffffff8211156112bb57600080fd5b601f19601f8301169050602081019050919050565b600067ffffffffffffffff8211156112e757600080fd5b601f19601f8301169050602081019050919050565b6000819050602082019050919050565b600081519050919050565b600081519050919050565b600081519050919050565b6000602082019050919050565b600082825260208201905092915050565b600082825260208201905092915050565b600082825260208201905092915050565b600081905092915050565b60008115159050919050565b6000819050919050565b82818337600083830152505050565b60005b838110156113bb5780820151818401526020810190506113a0565b838111156113ca576000848401525b50505050565b6000601f19601f8301169050919050565b6113ea81611378565b81146113f557600080fd5b50565b61140181611384565b811461140c57600080fd5b5056fea365627a7a723158209e2c49a77cb4c29846f54d5445ea92221b891f701272292fc17a34824bc153316c6578706572696d656e74616cf564736f6c63430005100040",
  "source": "pragma solidity 0.5.16;\r\npragma experimental ABIEncoderV2;\r\n\r\ncontract Rating {\r\n    struct item {\r\n        uint256 likes;\r\n        uint256 dislikes;\r\n    }\r\n    mapping(string => item) public itemsInformation;\r\n    mapping(string => bool) public items;\r\n    string[] public ratedItems;\r\n    mapping(string => mapping(string => bool)) public ratingInformation;\r\n    mapping(string => mapping(string => bool)) public voterToResource;\r\n\r\n    /* Events */\r\n    event LogSuccessfullyRatedItem(string message);\r\n    event LogNoMultipleVotesAllowed(string errorMessage);\r\n\r\n    function rateItem(\r\n        string memory _credentials,\r\n        string memory _resourceID,\r\n        bool _vote\r\n    ) public {\r\n        if (voterToResource[_credentials][_resourceID] == true) {\r\n            if (\r\n                ratingInformation[_credentials][_resourceID] == true &&\r\n                _vote == false\r\n            ) {\r\n                ratingInformation[_credentials][_resourceID] = false;\r\n                itemsInformation[_resourceID].likes -= 1;\r\n                itemsInformation[_resourceID].dislikes += 1;\r\n            }\r\n            if (\r\n                ratingInformation[_credentials][_resourceID] == false &&\r\n                _vote == true\r\n            ) {\r\n                ratingInformation[_credentials][_resourceID] = true;\r\n                itemsInformation[_resourceID].likes += 1;\r\n                itemsInformation[_resourceID].dislikes -= 1;\r\n            }\r\n        } else {\r\n            if (items[_resourceID] == false) {\r\n                items[_resourceID] = true;\r\n                ratedItems.push(_resourceID);\r\n                voterToResource[_credentials][_resourceID] = true;\r\n                if (_vote == true) {\r\n                    itemsInformation[_resourceID] = item(1, 0);\r\n                    ratingInformation[_credentials][_resourceID] = true;\r\n                    emit LogSuccessfullyRatedItem(\r\n                        \"Item was successfully rated.\"\r\n                    );\r\n                } else {\r\n                    itemsInformation[_resourceID] = item(0, 1);\r\n                    ratingInformation[_credentials][_resourceID] = false;\r\n                    emit LogSuccessfullyRatedItem(\r\n                        \"Item was successfully rated.\"\r\n                    );\r\n                }\r\n            } else {\r\n                voterToResource[_credentials][_resourceID] = true;\r\n                if (_vote == true) {\r\n                    itemsInformation[_resourceID].likes += 1;\r\n                    emit LogSuccessfullyRatedItem(\r\n                        \"Item was successfully rated.\"\r\n                    );\r\n                } else {\r\n                    itemsInformation[_resourceID].dislikes += 1;\r\n                    emit LogSuccessfullyRatedItem(\r\n                        \"Item was successfully rated.\"\r\n                    );\r\n                }\r\n            }\r\n        }\r\n    }\r\n\r\n    /* This function returns the number of likes/dislikes for a specific item */\r\n    function getItemInformation(string memory _resourceID)\r\n        public\r\n        view\r\n        returns (uint256, uint256)\r\n    {\r\n        return (\r\n            itemsInformation[_resourceID].likes,\r\n            itemsInformation[_resourceID].dislikes\r\n        );\r\n    }\r\n\r\n    function getNumberOfRatedItems() public view returns (uint256) {\r\n        return ratedItems.length;\r\n    }\r\n\r\n    function getRatedItem(uint256 _index) public view returns (string memory) {\r\n        return ratedItems[_index];\r\n    }\r\n\r\n    function getRatedItems() public view returns (string[] memory) {\r\n        return ratedItems;\r\n    }\r\n}\r\n",
  "sourcePath": "E:\\RatingDApp\\contracts\\Rating.sol",
  "compiler": {
    "name": "solc",
    "version": "0.5.16+commit.9c3226ce.Emscripten.clang"
  },
  "schemaVersion": "3.2.0",
  "updatedAt": "2020-07-09T21:00:38.562Z",
  "networkType": "ethereum",
  "devdoc": {
    "methods": {}
  },
  "userdoc": {
    "methods": {}
  }
}